:020000040800F2
:1000000090050020D5000008DD000008DF00000892
:1000100000000000000000000000000000000000E0
:10002000000000000000000000000000E1000008E7
:100030000000000000000000E3000008651E00084A
:10004000E70000083D1E0008E7000008C50500089D
:10005000E7000008E7000008E7000008E7000008E4
:10006000E7000008E7000008E7000008E7000008D4
:100070005D050008011C0008E7000008E700000813
:10008000E7000008E7000008E700000800000000A3
:10009000E7000008E7000008E7000008E7000008A4
:1000A000E7000008551E0008E7000008E700000808
:1000B000E7000008451E0008E7000008E700000808
:1000C0000348854600F038FA004800471726000824
:1000D000900500200448804704480047FEE7FEE7FB
:1000E000FEE7FEE7FEE7FEE70D1F0008C10000087F
:1000F00030B50B46014600202022012409E00D46C0
:10010000D5409D4205D31D469540491B2546954047
:1001100040191546521E002DF1DC30BDF0B50746E2
:100120000846584087B0C00F049048000E4659005A
:1001300040084908BC1A884105D2384631461E4657
:1001400017460B4602465800400810434CD0300D6D
:10015000039040055900400D490D0590401A02904A
:10016000402872DA18030121000B090508430190A9
:1001700004980092002805D001995242002088413D
:1001800000920190029840210A1A0199009800F00B
:100190003FF905460C466B4607CB00F05AF9C019EB
:1001A0007141039A0E0D0023D71756401A467A4024
:1001B000164344D0049A002A2DD0029A012A039AA9
:1001C00015DC1205C01A914101263605001C71414B
:1001D000D20F059ED2070093019202962A4623462B
:1001E00000F057F907B0F0BD38463146FAE716057A
:1001F000224A0F46B218C01AB74101210905001C56
:100200004F4100187F41114618187941E20F104301
:100210006D19644113E0E2076D0815436408C207D5
:100220001443039A01261205C01A91413605001C99
:100230007141CE07400830434908C01851412A4651
:10024000234600F019F9CDE7FFE7049801224000AA
:10025000C117121A00238B4104983146C417381A6B
:10026000A141EEE730B40124E407634030BC55E718
:1002700030B40124E407614030BC4FE70000E0FFE8
:10028000F0B50C465C4085B0E40FE40703944C00E5
:100290000026640859009446490802460296224303
:1002A00021D062460A431ED06200570D4A000E0359
:1002B0002303550D012402462C492405781B1B0BF2
:1002C000360B401823432643614600901C46501AC3
:1002D000B44103D30098401C009002E092180098AB
:1002E0005B41002803DA0020014605B0F0BD002084
:1002F000012109050746864611E064461D46141B88
:10030000B54106D36546521BB341744607430C43BF
:10031000A646CD0740084908284392185B41054688
:100320000D43EAD11046184313D060461946504099
:100330007140084306D06046101AB34106D201222C
:10034000002306E000220123DB0702E00122D24362
:100350005310009874460105381C6141029C039DAE
:100360000019694100F088F8BFE70000FD030000B4
:1003700070B54B005B0803430BD04B005C0D0026AF
:1003800033466542B341D417AD1AA34102DB0020C6
:10039000014670BD12053018514170BD0EB50549BA
:1003A0000291002100910A460B46019100F071F87C
:1003B00003B000BD330400000EB5054A02920022CE
:1003C00000921346019200F064F803B000BD0000F3
:1003D000330400004A0009030123090B1B051943DC
:1003E000094B10B5520D9A4201DA002010BD064BA0
:1003F00034339A4203DC9A1A00F01AF810BD03490C
:100400005118884010BD0000FF030000CDFBFFFF26
:1004100010B5202A04DB0146203A9140002010BD8F
:10042000914020239C1A0346E3401943904010BD9D
:1004300010B5202A04DB0846203AD040002110BD28
:100440000B46D340D0402024A21A914008431946BD
:1004500010BD10B5202A06DBCB170846203A104104
:10046000C1170B4306E00B461341D0402024A21ACB
:1004700091400843194610BD10B5002B08DA00243E
:10048000401C614192185B411A4301D14008400071
:1004900010BDF0B51FB482B005460C0003D008466D
:1004A00002F086F802E002F083F820300246009065
:1004B00021462846FFF7ACFF049B059A04460F46E9
:1004C00018431143084314D0184610431BD000981A
:1004D00040210A1A18460599FFF7AAFF05460E465D
:1004E000009A05990498FFF793FF084305D001206F
:1004F00004E02046394607B0F0BD0020C11705438F
:100500000E432C43374300990E986305401A790532
:10051000E40A00220C43FD0A0A3002D500200146FD
:10052000E9E70105101969410C9C0D9D001969410D
:10053000FFF7A2FFDFE70000064C0125064E05E0AD
:10054000E36807CC2B430C3C98471034B442F7D3F4
:10055000FFF7BAFD5C2600087C26000810B50248AB
:1005600000F0D0F810BD00002000002038B504468F
:10057000084807490068FFF7BBFD6043009002E0B0
:100580000098401E009000980028F9D138BD000066
:1005900040420F0004000020FEE7000010B50749AC
:1005A00000234B6106494A684C1522434A604A6859
:1005B000082422434A60036010BD000008000020A8
:1005C0000020024010B500F013FA10BD1A498869E6
:1005D000C2051A4803D5426908231A4342618A6951
:1005E000920503D5426904231A4342618A69520580
:1005F00003D5426902231A4342618A69120503D571
:10060000426910231A4342618A69920403D5426900
:1006100001231A4342618A69920303D54269202368
:100620001A4342618A69D20303D5426940231A43BF
:1006300042610348886170470020024008000020A2
:10064000002F0300F8B50C4605464035297D0129E9
:100650000DD00121297501688A68520709D5816D7D
:10066000202211438165002028750120F8BD022059
:10067000F8BD214B6268D8054710204E9A421DD024
:100680008A6A23685B035B0B1A438A622168490309
:1006900005D5B1680143B1600A20FFF767FF206804
:1006A000800302D5B0683843B0602068C0031FD50E
:1006B000B068012109060843B06019E08A6A23681E
:1006C0005B035B0B9A438A622168490302D5B168D8
:1006D0008143B1602068800302D5B068B843B06040
:1006E0002068C00304D5B168012000068143B160D1
:1006F00000202875F8BD000001100000002701400F
:100700007047704770B5044620680168490702D5F4
:100710004168490705D40168090730D541680907D0
:100720002DD5A16DC90604D4A16D01225202114339
:10073000A165C1680C250905890F00291AD1A16A94
:10074000002917D10168090714D5816801224907DA
:10075000002908DB4168A9434160A06D110288436C
:100760001043A06506E0A06D20210843A065E06D60
:100770001043E0652046FFF7C3FF2068056020684E
:10078000016809060DD5406800060AD5A06D012153
:1007900009040843A065204600F002F92168802082
:1007A000086020680168C90613D54168C90610D5DC
:1007B000216C1025002902D0C168C90707D0E16D5E
:1007C00002221143E16505602046FFF79AFF206889
:1007D000056070BD70B50446002C06D0A06D25469E
:1007E00000264035002802D006E0012070BDE665F5
:1007F0002E75204600F0D6F8A06DC00603D4206800
:100800008168490706D5A06D10210843A0652E75A3
:10081000012070BDA16DFF220132914302221143DC
:10082000A16581685B4A8907890F012902D10168A6
:10083000C9072BD1032361699B07994205D05B420D
:10084000994202D05B00994209D101698900890867
:100850000161206801696369194301610CE0016964
:1008600089008908016190680F218904884390609C
:1008700090686169084390602068C16818239943B3
:10088000C1602068C168A3691943C16090680121F3
:100890004906884390609068A16C490608439060BF
:1008A00020688168C90004D48168012212071143BD
:1008B00081602068C168384A1140C160206A616A5D
:1008C000022823D000200143A06AA26B40035200FB
:1008D00010430143206C0143606C80030143E06CD2
:1008E000C00301432068C2681143C160206B014608
:1008F000FF39C23905D0616B08432168CA681043CB
:10090000C860E06A0121012802D00BE00420DAE788
:10091000A06A002823D0A06D20221043A065E06DBE
:100920000843E0656068012820D020680169C90794
:1009300003D0016949084900016120684169C9087B
:10094000C900416120684169E26911434161E6657E
:10095000A06D80088000401CA065002070BD20684C
:10096000C26801231B041A43C260DBE720680269E6
:100970000A4B1A40026120680269A36825691A437C
:10098000E3682B431A430261206802690A4302614B
:10099000D3E70000002701401902FEFF03FCFF7FA0
:1009A0007047000000B585B000680E49884216D136
:1009B0000D48416B421511434163032000900190A3
:1009C0000020029005206946000700F079F8002217
:1009D00011460C2000F0B6FA0C2000F0A9FA05B080
:1009E00000BD0000002401400010024070470000DC
:1009F000F8B52F4CA1692F48002688432E4F0028B8
:100A000009D13878012816D0FD68FFF7DFFD2846A8
:100A100000F054F83E70A069C043800735D402202E
:100A2000A0613878002830D03878012808D038788C
:100A3000022822D028E0BD680020C043B860E4E767
:100A40007868401E7860786800280FD0B868FFF793
:100A5000CDFFB8688030B9688031B9606168012223
:100A6000520291436160FFF799FD0EE00020C04300
:100A7000B8603E70FFF7BAFF07E06068082188435E
:100A80006060F868FFF7B2FF3E70387800280ED13A
:100A900060684121C90088436060606801210904E1
:100AA0008843606060684900884360603E74F8BDB8
:100AB00000200240002F03000800002070470000C3
:100AC000F0B5002298E001249440A4462340002B76
:100AD0007ED04C68022C01D0122C0CD1D408A4007A
:100AE00027183D6A5407E40E0F26A640B5430E6949
:100AF000A6402E433E624C68012C05D0022C03D048
:100B0000112C01D0122C11D1856854000326A64067
:100B1000B543CE68A6402E43866044686546AC4324
:100B20000D79ED06ED0F95402543456007685400AB
:100B30000325A540AF430E79B607B60FA6403E4346
:100B40000660C668AE438D68A5403543C5604C68F5
:100B5000E40050D52B4C666B01252E436663950847
:100B6000294CAD002D19AF689407240F0F26A6401D
:100B7000B74305263607B04201D1002619E0234EBF
:100B8000B04201D1012614E0214EB04201D102262B
:100B90000FE0204EB04201D103260AE01E4EB042C3
:100BA00001D1042605E01D4EB04201D1052600E02A
:100BB0000626A6403E43AE60194D2C689C434E6805
:100BC000F60300D51C432C606C689C434E6800E023
:100BD00011E0B60300D51C436C60AC689C434E68C2
:100BE000F60200D51C43AC60EC689C434E68B6022C
:100BF00000D51C43EC60521C0B681C46D44000D04E
:100C000061E7F0BD00100240000001400004005008
:100C100000080050000C005000100050001C005054
:100C200000040140002A01D0816170478162704751
:100C300001480068704700000000002070B50446BD
:100C4000002C05D02068C068400703D0012070BD8B
:100C5000012070BD607C002803D12074204600F084
:100C60003DF80220607421681A48086020684168D5
:100C70006268C908C9001143416020688168A268A0
:100C8000090B0903114381601348E168814203D1D4
:100C900021680969814218D0FFF7CAFF05467D2601
:100CA000F60007E0FFF7C4FF401BB04202D9032063
:100CB000607470BD2068C0684007F3D12068016986
:100CC000E268090B090311430161012060740020EF
:100CD00070BD000055550000FF0F00007047000078
:100CE00002480168491C01607047000000000020B4
:100CF00010B506480168402211430160002000F051
:100D000007F800F0EDF8002010BD000000200240C0
:100D100010B5044607487D21C9000068FFF7E8F9CF
:100D200000F06AFE00222146501E00F00BF9002060
:100D300010BD0000040000207047704770477047E6
:100D40007047704710B5044620680168C943C90759
:100D500008D18168C943C90704D1012141602046F7
:100D6000FFF7ECFF20680168C943890708D4816850
:100D7000C943890704D4022141602046FFF7DCFF04
:100D800020680168C943490708D48168C9434907F5
:100D900004D404214160204600F0A0F820680168D6
:100DA000C943090708D48168C943090704D4082145
:100DB00041602046FFF7C3FF20680168C943C906A8
:100DC00008D48168C943C90604D410214160204673
:100DD000FFF7B3FF20680168C943890608D481681A
:100DE000C943890604D4202141602046FFF7A9FFAA
:100DF00020680168C943490608D48168C943490687
:100E000004D4402141602046FFF79AFF01200249A7
:100E10004007486110BD000000040140F8B50446D9
:100E2000002C05D025462035A87B002802D006E0FE
:100E30000120F8BD00206873204600F037F802203A
:100E4000A8732068C26884466068012801D11E2109
:100E50008A43134B6169994201D0124B1A40124BDD
:100E60001A40A368676A266A03433E433343A66A6F
:100E700033431343012803D12269E068104303433D
:100E80000748814205D0A0690143E0691843014346
:100E90000B466046C3600120A8730020F8BD000027
:100EA000FFFF00003F1FFFFFFEF119FF10B50068B4
:100EB000084988420CD10848816BC2041143816300
:100EC000002211460D2000F03DF80D2000F030F812
:100ED00010BD0000007C0040001002407047000080
:100EE00010B51248416B01221143416300221146A3
:100EF000501F00F027F800221146901E00F022F843
:100F000000221146501E00F01DF80022114601205B
:100F100000F018F8012000F00BF800221146032021
:100F200000F010F8032000F003F810BD001002409C
:100F3000C106C90E012088400149086070470000C1
:100F400000E100E010B500F057FF10BD7047000051
:100F500010B5054C6069C00304D5FFF7F7FF012009
:100F60000004606110BD000000040140F8B50446B3
:100F70002068624D810601D4000571D55F49403972
:100F80000A680327A0693F0503463A403B409A425E
:100F900005D10A68E3693A403B409A4208D0800391
:100FA000800F032804D10868800301D50120F8BD13
:100FB00052484038816B02041143816350480168F4
:100FC000821511430160FFF733FE064606E0FFF786
:100FD0002FFE801B642801D90320F8BD4848006813
:100FE000C005F4D5286903210904A26908400A4014
:100FF000904205D12869E26908400A4090422FD00A
:1010000028690321090488432A690121C9040A4384
:101010002A612A698A432A61286180050ED5FFF773
:1010200007FE064607E0FFF703FE811B35488142B5
:1010300001D90320F8BD28698005F4D5A069810392
:10104000890F032952D02D4840380168B943016007
:10105000296903200004A2698143024011432961E8
:101060002078C00705D0E8686168800880000843E0
:10107000E8602078800705D5E8680C218843A168DE
:101080000843E8602078400706D5E8680321890214
:101090008843E1680843E8602078000706D5E868DF
:1010A00003210903884321690843E8602088C005BB
:1010B00006D5E86803210904884361690843E860AC
:1010C0002078400606D5E868012189068843216A10
:1010D0000843E8602078000606D5E8680321890403
:1010E0008843616A0843E8600020F8BD034A403A3B
:1010F00011683840B94301431160A9E7401002402C
:101100000070004088130000F8B504460E465B48A6
:101110000068C007C00FB0420CD2584801684908A7
:101120004900314301600068C007C00FB04201D0E0
:101130000120F8BD2078524F800705D5F868F021CE
:101140008843A1680843F8602078C00760D06068D1
:10115000022808D000280BD003280ED03968490790
:1011600010D40120F8BD396889030BD40120F8BDE3
:101170003968890506D40120F8BD3968890101D490
:101180000120F8BDF968890889000143F960FFF77B
:101190004FFD0546606802280CD0032818D00028AF
:1011A00024D030E0FFF744FD411B3648814201D98D
:1011B0000320F8BDF8680007800F0228F2D127E06D
:1011C000FFF736FD411B2F48814201D90320F8BDAE
:1011D000F8680007800F0328F2D119E0FFF728FD17
:1011E000411B2848814201D90320F8BDF868000757
:1011F000800FF3D10CE0FFF71BFD411B214881421A
:1012000001D90320F8BDF8680007800F0128F2D14A
:101210001A480168C907C90FB1420BD301684908D0
:101220004900314301600068C007C00FB04201D0DF
:101230000120F8BD2078400706D5F868072109028B
:101240008843E1680843F8602078000707D5F8680C
:101250000721C90288432169C9000843F86000F0EA
:101260003DF8F968084A0906090F515CC84007496A
:1012700008600020FFF74CFD0020F8BD0020024070
:1012800000100240881300003826000804000020E7
:1012900001480068704700000400002000B5FFF717
:1012A000F7FF0449C968044A4905490F515CC84021
:1012B00000BD0000001002405126000800B5FFF7F5
:1012C000E7FF0449C968044A8904490F515CC840D2
:1012D00000BD0000001002405126000810B5214B4F
:1012E00058680004420FD9680C2001401E4808D0FD
:1012F000042909D008290ED00C290ED0521C904088
:1013000010BD521C904010BD1868C00601D517488A
:1013100010BD174810BD174810BDD8680F218904AB
:101320000840D968032292051140134A800C105CD2
:10133000890D491CDA68012424042240002A04D0C3
:101340000C4A5043FEF7D4FE10BD1A68D20604D5ED
:10135000064A5043FEF7CCFE10BD054A5043FEF747
:10136000C7FE10BD001002400080000000093D00D3
:101370000024F40000127A0048260008FEB5044656
:101380002078FF4EC00756D0F0680007800F022873
:1013900007D0F0680007800F03280AD1F068C00367
:1013A00007D53068800346D56068002843D1012006
:1013B000FEBD012160680904884203D130680843FA
:1013C000306018E0052301221B049204984209D1E1
:1013D00030688843306030681043306030680843BC
:1013E000306008E030688843306030680840019021
:1013F000306890433060606800280ED0FFF718FC1A
:10140000054606E0FFF714FC401B642801D90320C1
:10141000FEBD30688003F5D50DE0FFF709FC0546F9
:1014200006E0FFF705FC401B642801D90320FEBD40
:1014300030688003F5D4207880074BD5F0681F27EB
:101440000007800F3F02012807D0F0680007800FD7
:10145000032811D1F068C0030ED43068400704D5CA
:10146000E068012801D00120FEBD70682169B84301
:101470000902084370602DE0E0680921002818D0B7
:1014800032688A4302433260FFF7D2FB054606E02A
:10149000FFF7CEFB401B022801D90320FEBD3068B8
:1014A0004007F5D570682169B843090208437060A8
:1014B00010E0306888433060FFF7BAFB054606E06D
:1014C000FFF7B6FB401B022801D90320FEBD3068A0
:1014D0004007F5D42078C0065CD5F068A94F000716
:1014E000800F0BD0E069002841D03068FF21013126
:1014F00008433060FFF79CFB054628E03068800514
:1015000002D5E069002819D07068616AB8430843C1
:1015100070607068218C0002000A09060843706040
:10152000FFF7DCFEF168984A0906090F515CC840D4
:10153000964908600020FFF7EBFB2BE00120FEBD81
:10154000FFF776FB401B022801D90320FEBD30685F
:101550008005F5D57068616AB843084370607068AB
:10156000218C0002000A09060843706012E030680E
:10157000FF21013188433060FFF75AFB054606E042
:10158000FFF756FB401B022801D90320FEBD30683F
:101590008005F5D420787E4D000727D560690028A6
:1015A00012D02869012108432861FFF741FB074653
:1015B00006E0FFF73DFBC01B022801D90320FEBD5A
:1015C00028698007F5D511E02869400840002861A6
:1015D000FFF72EFB074606E0FFF72AFBC01B022899
:1015E00001D90320FEBD28698007F5D42078800644
:1015F00032D56849A0694B14002818D0B268012080
:101600000243B260726B02437263086A1843086255
:10161000FFF70EFB074606E0FFF70AFBC01B022898
:1016200001D90320FEBDB0688007F5D514E0B0688D
:1016300040084000B060086A98430862FFF7F8FA73
:10164000074606E0FFF7F4FAC01B022801D9032081
:10165000FEBDB0688007F5D4207840076FD5002024
:1016600001900090B06BC00006D4B16B0120000760
:101670000143B1630120019047480068C00515D4BB
:101680004548016882151143016001200090FFF771
:10169000CFFA074606E0FFF7CBFAC01B642801D952
:1016A0000320FEBD3C480068C005F4D5FF27A068B4
:1016B0000137B84203D12869384328611EE001216F
:1016C000890200280DD005221202904210D128690B
:1016D000B84328612869084328612869384328618C
:1016E0000CE02869B843286128698843286105E02F
:1016F0002869B8432861286988432861A0680028C0
:1017000010D0FFF795FA029008E0FFF791FA0299DE
:10171000411A2248814201D90320FEBD2869800573
:10172000F3D510E0FFF784FA029009E0FFF780FAA2
:101730000299411A1948814202D90320FEBD11E0E5
:1017400028698005F2D40098012803D11248016865
:10175000B94301600198012804D1B06B0121090748
:101760008843B063A06A002858D0F1680907890F40
:10177000032955D001273F06022817D030680FE013
:101780000010024000E0000038260008040000209D
:10179000401002400000014000700040881300002B
:1017A000B8433060FFF744FA044634E03068B84389
:1017B0003060FFF73DFA054606E0FFF739FA401BB7
:1017C000022801D90320B9E730688001F5D4616BA4
:1017D000206BF2680843E16AFD231B049A4311431E
:1017E0000843F060306838433060FFF721FA044660
:1017F00006E0FFF71DFA001B022801D903209DE730
:1018000030688001F5D509E0FFF712FA001B0228C5
:1018100001D9032092E730688001F5D400208DE7DC
:1018200001208BE7704738B501684A68D2435206F9
:101830000AD48A68D243D20706D18A68D2435206B4
:1018400002D5816C884738BD4A68D243120606D457
:101850008A68D243920702D4C16C884738BD4A686F
:10186000D2439206FAD48A68D243D20606D4426D95
:1018700002231A4342651022D2438A6001688A68B3
:101880000123D2439206002A08DB426D1A434265C7
:101890008A6800920A684024A2430A6001688A6844
:1018A000D243540602464032002C09DB547C122CF1
:1018B00006D0446D04252C434465CC688C680094A4
:1018C0008C68E443E40505D4446D08252C43446545
:1018D0008C680094446D002CC0D04C68E025AC436B
:1018E0004C605374FFF79EFF38BD70B50446002C62
:1018F00006D025464035687C0026002802D005E049
:10190000012070BD2E74204600F032F80220687469
:1019100020680168402291430160A16860682269E3
:101920000843E16811430843616901220843A16942
:10193000520211400843E1690843216A0843A16A41
:10194000084321680860A0690421000C0840616A0E
:101950000843216848602168E06A08612068C1691D
:1019600092009143C161666501206874002070BDDA
:1019700070B586B000681549884224D11448416B7F
:10198000821411434163D020019002260296002464
:101990000394032504950594052001A90007FFF78A
:1019A0008FF808200190029603940495059401A9EC
:1019B0000848FFF785F8002211461920FFF7C2FA00
:1019C0001920FFF7B5FA06B070BD000000300140E5
:1019D000001002400004005004220549042803D0EE
:1019E00008699043086170470869104308617047AF
:1019F00000E000E07047000010B50949401E884231
:101A000001D9012010BD074C60610321081F00F0BF
:101A1000F3F90020A06107202061002010BD000024
:101A2000FFFFFF0000E000E010B5FFF7E3FF10BD8F
:101A30007047704770B504462068C1692546C907DC
:101A400020266035002909D00168C90506D5012185
:101A50000162E06E0843E0666E72AE722068C16992
:101A600004228B070221002B08DA8368DB0705D0EC
:101A70000162E06E1043E0666E72AE722068C36968
:101A80005B0708D58368DB0705D00262E06E084378
:101A9000E0666E72AE722068C169090709D5816877
:101AA000C90706D008210162E06E0843E0666E7245
:101AB000AE72E06E002804D06E72AE722046FFF760
:101AC000B8FF2068C169C9020AD58168490207D5F3
:101AD0000121090501626E72AE722046FFF7A8FF70
:101AE0002068C169890605D50068800602D52046B0
:101AF00000F0D7FA2068C169090605D5006800061C
:101B000002D5204600F0BEFC2068C169490605D513
:101B10000068400602D5204600F0B6FA70BD70B5E8
:101B20000446002C05D025466035687A002802D08E
:101B300006E0012070BD00202872204600F024F845
:101B40002420687220680168490849000160204625
:101B500000F0ECFA606A002802D0204600F000FA9B
:101B6000206841680922D20291434160206881685F
:101B70002A2291438160206801680122114301609B
:101B8000204600F053FA70BD30B585B000681649A4
:101B9000884226D11548816B01229204114381634A
:101BA000032400940225019501200290039406204D
:101BB000049069460E48FEF783FF0E480090019599
:101BC0000020029003940420049069460A48FEF71E
:101BD00077FF002211461D20FFF7B4F91D20FFF703
:101BE000A7F905B030BD00000048004000100240D9
:101BF00000080050022000000004005070477047A9
:101C000010B50248FFF79EF810BD000094000020B8
:101C10001CB51B481949016000214160032292074D
:101C200042618161C1610124046241628162C162D9
:101C3000416381630422C263016441648164C164BD
:101C4000FEF7C8FD002801D0FEF7A6FC0094012095
:101C50000003019069460A48FEF7F4FC002801D011
:101C6000FEF79AFC0748009069460548FEF7EAFC33
:101C7000002801D0FEF790FC1CBD000000240140AC
:101C80002000002002000004F0B587B02148C16A9E
:101C900004242143C162C16A21400191C26A8021AA
:101CA0000A43C262C26A0A400192C16A01263143F4
:101CB000C162C16A31400191C16A02252943C162F2
:101CC000C06A28400190E002029013480390002768
:101CD000049702A91148FEF7F3FE0C200290039529
:101CE00004970320059006940524240702A92046A2
:101CF000FEF7E6FE2020029003960497059702A9BE
:101D00002046FEF7DDFE002220212046FEF78AFF56
:101D100007B0F0BD00100240000011100008005094
:101D200010B5084806490160002141600649C160BC
:101D30008160FEF783FF002801D0FEF72DFC10BD67
:101D40000030004080000020FF0F000010B50A485E
:101D500008490160002141608160084A42610162D6
:101D600041628162FFF75AF8002801D0FEF714FCA7
:101D700010BD0000007C004094000020FFFF000028
:101D800010B50C480A490160E12149024160002177
:101D90008160C16001610C22426192018261016235
:101DA0004162FFF7BCFE002801D0FEF7F5FB10BD35
:101DB00000480040C400002010B50E480C490160E6
:101DC000FF210531416000218160C16001614161F5
:101DD000012292048261C161016241628162072134
:101DE000C162FFF782FD002801D0FEF7D5FB10BDD0
:101DF00000300140340100208307FF22DB0E9A40AF
:101E00008907090E994000280BDA0007000F0838EF
:101E1000830808489B001818C36993430B43C361A8
:101E20007047830804489B001818036893430B43CA
:101E30000360704700ED00E000E400E010B5FFF73C
:101E400087F810BD10B50248FFF7F4FD10BD000083
:101E5000C400002010B50248FFF7E5FC10BD0000EB
:101E60003401002010B5FEF73BFFFFF7DDFD10BD8C
:101E700030B59DB02348816B020411438163224831
:101E800001680322D2029143C214891801600A201A
:101E90000F90012512951020139014950024199489
:101EA0000FA8FFF76BFA002801D0FEF775FB0F2093
:101EB0000A900B950C940D940E9400210AA8FFF73C
:101EC00023F9002801D0FEF767FB842000900394DB
:101ED00009946846FFF74AF8002801D0FEF75CFB3A
:101EE000FFF7D6F97D21C900FEF702F9FFF784FD5F
:101EF0000420FFF771FD00221146501EFFF722F863
:101F00001DB030BD00100240007000401048016854
:101F1000821511430160C1680E4A1140C160016819
:101F20000D4A1140016081684908490081600168DB
:101F30000122920491430160C168FD221204914381
:101F4000C160002101610549C0038860704700003D
:101F5000001002400C40FF88F6FFF6FE00ED00E0A6
:101F600010B5818CC90707D001684A6801235B045A
:101F70009A43836A1A434A60818C890707D50168AE
:101F80004A6801231B049A43C36A1A434A60818C3E
:101F9000490707D501684A6801239B049A43036BEC
:101FA0001A434A60818C090707D501684A680123F2
:101FB000DB039A43436B1A434A60818CC90607D5F9
:101FC00001688A6801231B039A43836B1A438A6062
:101FD000818C890607D501688A6801235B039A43CF
:101FE000C36B1A438A60818C490612D501684B681D
:101FF00001221205046C934323434B60016C914210
:1020000007D101684A6803235B059A43436C1A436E
:102010004A60818C090607D501684A680123DB0400
:10202000806C9A4302434A6010BD000070B50446BC
:1020300020680068134D00070AD501212B460022B5
:102040004905204600F052FA002801D0032070BD57
:102050002068006840070AD501212B460022890527
:10206000204600F043FA002801D0032070BD002173
:10207000204660300172E1662021417281720020A9
:1020800070BD0000F055000010B501680A684023DB
:102090009A430A60202269210A54FFF7B0FD00200C
:1020A00010BD70B502464032948B034660339D7A72
:1020B0000168222D05D0886908221043886102201A
:1020C00070BD012685683603B54202D10569002D31
:1020D0000DD04D6A416D25404C1C44650D70518BEF
:1020E000491E0904090C518309D0002070BD456DBB
:1020F000496A21402980416D891C4165EFE70168EB
:10210000CA699206FCD40C68202294430C600168D2
:102110000C68D500AC430C6001688C6864086400EE
:102120008C609A72FFF76AFD002070BDFEB5044610
:1021300000200021C74B22682669A568E76935435E
:1021400066693E4335431668C34F3E402E431660D2
:102150002268556803263603B543E6683543556063
:10216000A26925689D4201D0266A3243AE680B27DA
:102170003F02BE431643AE60B84E2568B84AB5422A
:1021800012D1D2689207920F06D0012A08D0022AF3
:1021900004D0032A2CD105E0012029E0022027E009
:1021A000042025E0082023E0AE4EB54210D1D268CD
:1021B0000C2632401CD0042A06D0082A02D00C2A51
:1021C00016D103E0022013E0042011E008200FE004
:1021D0009D420DD1D2680326B602324008D00126B6
:1021E000B602921B2AD0921B26D0B24200D1082000
:1021F0009B4A403A9D4278D1002821D0022841D004
:10220000042874D0082816D164682046FEF7C6F862
:102210000F4606460021CA0760081043FEF7CCF8B7
:102220000022914BFDF77AFF32463B46FEF728F835
:10223000FEF7D0F8E860FEBD0220D9E70420D7E71A
:1022400065682846FEF7AAF8019100900021CA07A8
:1022500068081043FEF7B0F805460E46FFF71EF873
:10226000FEF79CF80822FEF783F82A463346FDF76E
:1022700055FF019B009AFEF703F8FEF7ABF82168C3
:10228000C860FEBD1068C00617D564682046FEF71A
:1022900085F80F4606460021CA0760081043FEF77E
:1022A0008BF80022714BFDF739FF32463B46FDF7B4
:1022B000E7FFFEF78FF8E860FEBD64682046FEF792
:1022C0006DF80F4606460021CA0760081043FEF766
:1022D00073F80022664BFDF721FF32463B46FDF7BF
:1022E000CFFFFEF777F8E860FEBD22E0FFE7676802
:1022F0003846FEF753F80E4605460021CA0778080F
:102300001043FEF759F801910090FEF7E7FFFEF742
:1023100045F80822FEF72CF8019B009AFDF7FEFE17
:102320002A463346FDF7ACFFFEF754F82168C86033
:10233000DAE70126E369F603B34249D1030000F06E
:102340004EF90906101A3F2D3F3F3F373F00FEF779
:10235000A5FF616840004A088018FDF7C9FE81B2F8
:102360002EE0FEF7ABFF616840004A088018FDF7D9
:10237000BFFE81B224E01068C00607D561683D4AFF
:1023800048088018FDF7B4FE81B219E061683A4A46
:1023900048088018FDF7ACFE81B211E0FEF79EFF01
:1023A000616840004A088018FDF7A2FE81B207E08C
:1023B00061680122480812048018FDF799FE81B275
:1023C0000A0912010807400F10432168C8608BE713
:1023D000030000F004F90907111B062E0606063853
:1023E000060081E7FEF75AFF61684A088018FDF78A
:1023F0007FFE2168C86077E7FEF760FF61684A08E2
:102400008018FDF775FE2168C8606DE71068C0068A
:1024100007D56168194A48088018FDF769FEE86029
:1024200062E76168164A48088018FDF761FEE860B7
:102430005AE7FEF753FF61684A088018FDF758FE17
:102440002168C86050E7616848088019FDF750FEB0
:10245000E86049E700480040F369FFEF00380140B9
:102460004010024000440040000060418084CE41A2
:102470008084EE4100127A000048E80100093D0026
:102480000024F4006921095C212901D00220704751
:10249000014640314A8A002A12D0012382681B0378
:1024A0009A4202D10269002A16D0C26C531CC3643E
:1024B000006812788262488A401E48820020704775
:1024C00001680A6880239A430A6000680168402214
:1024D0001143016000207047C26C03681288D20566
:1024E000D20D9A62C26C921CC264E4E7FFB581B05F
:1024F000044616461D46FEF79BFB07463146264618
:102500006036002924D04CE0681C21D0002D04D076
:10251000FEF78EFBC01BA8421AD9206801688022F2
:10252000914301602068026820218A43026020688C
:102530000268CB009A430260206882685208520009
:1025400082607172B17200203072032005B0F0BD5C
:102550002068C16902988843D6D127E0681C20D042
:10256000002D04D0FEF764FBC01BA84219D92068D7
:10257000026880218A4302602068026820218A4321
:10258000026020680268CB009A430260206882687B
:102590005208520082607172B172002030720320C2
:1025A000D4E72068C16902988843D7D00020CDE7DE
:1025B0002021020C01D010211046020A01D0104641
:1025C0000839020901D01046091F820801D01046BF
:1025D000891E420801D0881E7047081A704730B41F
:1025E0007446641E2578641CAB4200D21D46635DB0
:1025F0005B00E31830BC184702E008C8121F08C18E
:10260000002AFAD170477047002001E001C1121F73
:10261000002AFBD17047FEF76BFBFFF729FCFFF7A1
:1026200033FBFFF7ADFBFFF7C7FBFFF78FFBFFF7B0
:10263000EFFAFFF775FBFEE7000000000000000066
:102640000102030406070809030406080C101820F9
:102650003000000000010203040000007C26000896
:102660000000002008000000F8250008842600086B
:10267000080000208805000008260008000000006F
:0426800080841E0034
:04000005080000C12E
:00000001FF
